:020000040800F2
:1000000078040020690200087102000873020008E9
:10001000750200087702000879020008000000005D
:100020000000000000000000000000007B0200084B
:100030007D020008000000007F0200088102000825
:10004000830200088302000883020008830200087C
:10005000830200088302000883020008830200086C
:10006000830200088302000883020008830200085C
:10007000830200088302000883020008830200084C
:10008000830200088302000883020008830200083C
:10009000830200088302000883020008830200082C
:1000A000830200088302000883020008830200081C
:1000B000830200088302000883020008830200080C
:1000C00083020008830200088302000883020008FC
:1000D00083020008830200088302000883020008EC
:1000E00083020008830200088302000800F002F87F
:1000F00000F03AF80AA090E8000C82448344AAF188
:100100000107DA4501D100F02FF8AFF2090EBAE885
:100110000F0013F0010F18BFFB1A43F0010318473B
:10012000D4030000F4030000103A24BF78C878C15B
:10013000FAD8520724BF30C830C144BF04680C60ED
:10014000704700000023002400250026103A28BF35
:1001500078C1FBD8520728BF30C148BF0B60704739
:100160001FB51FBD10B510BD00F089F91146FFF78E
:10017000F7FF00F009F800F0A7F903B4FFF7F2FF6A
:1001800003BC00F0AFF9000072B6304A511EB1F165
:10019000807F00D31BE0511E4FF0E02359615917B7
:1001A0000F23002904DB1C07250E294C655406E0AB
:1001B0001C07260E274C01F00F052D1F665500BFAA
:1001C00000214FF0E02399610721196100BF62B659
:1001D0002149896941F010011F4A91611F4949680D
:1001E00021F0FF011D4A51601146496841F011019B
:1001F000516017E01949C96841F48071174AD1600C
:10020000002000E0401C16498842FBDB1349C96806
:1002100021F48071114AD160002000E0401C104997
:100220008842FBDBE6E70F480068401C0D49086088
:1002300008460068052808D10848C06880F4807026
:100240000649C86000200749086070470024F40090
:1002500000E400E018ED00E0001002400010014052
:1002600040420F000000002009488047094800472D
:10027000FEE7FEE7FEE7FEE7FEE7FEE7FEE7FEE756
:10028000FEE7FEE704480549034A054B70470000B6
:1002900083030008ED0000087800002078040020A7
:1002A000780000200CB50020019000906A4800689A
:1002B00040F480306849086000BF6748006800F477
:1002C000003000900198401C0190009818B90198E6
:1002D000B0F5A06FF1D16048006800F4003010B1B3
:1002E0000120009001E0002000900098012843D1F7
:1002F0005A48006840F010005849086008460068F5
:1003000020F0030008600846006840F00200086022
:10031000514840685049486008464068486008466F
:10032000406840F4806048600846406820F47C10D3
:1003300048600846406840F4E81048600846006895
:1003400040F08070086000BF4348006800F0007013
:100350000028F9D04048406820F003003E4948603A
:100360000846406840F00200486000BF3A484068D4
:1003700000F00C000828F9D10CBD10B5FFF792FF72
:1003800010BD10B53448006840F0010032490860E3
:1003900008464068324908402F49486008460068CE
:1003A000304908402C4908600846006820F4802045
:1003B00008600846406820F4FE0048604FF41F00C3
:1003C0008860FFF7DAFF10BD10B500210020002281
:1003D000214B5B6803F00C0121B1042906D00829E8
:1003E00028D107E0204B214C236027E01E4B1F4CF7
:1003F000236023E0184B5B6803F47010164B5B68B6
:1004000003F48032022303EB904022B9184B43439C
:10041000164C23600DE0104B5B6803F4003323B1EE
:10042000134B4343114C236003E00F4B43430F4CEA
:10043000236003E00C4B0D4C236000BF00BF064B54
:100440005B68C3F303130B4CE15C084B1B68CB40A8
:10045000064C236010BD0000001002400020024046
:100460000000FFF8FFFFF6FE00127A0004000020F3
:1004700000093D000800002070477047704775462E
:1004800000F02CF8AE4605006946534620F0070000
:10049000854618B020B5FFF7F5FEBDE820404FF0C7
:1004A00000064FF000074FF000084FF0000B21F05E
:1004B0000701AC46ACE8C009ACE8C009ACE8C0092B
:1004C000ACE8C0098D46704710B50446AFF3008014
:1004D0002046BDE81040FFF750BE000000487047BE
:1004E0001800002001491820ABBEFEE726000200DC
:1004F00070470000140500080000002018000000EC
:10050000280100082C0500081800002060040000E5
:10051000440100080000000000A24A04000000009E
:0C052000000000000102030406070809A7
:04000005080000ED02
:00000001FF
