:020000040800F2
:100000007804002061020008690200086B02000801
:100010006D0200086F020008710200080000000075
:100020000000000000000000000000007302000853
:10003000750200080000000077020008AF01000808
:100040007B0200087B0200087B0200087B0200089C
:100050007B0200087B0200087B0200087B0200088C
:100060007B0200087B0200087B0200087B0200087C
:100070007B0200087B0200087B0200087B0200086C
:100080007B0200087B0200087B0200087B0200085C
:100090007B0200087B0200087B0200087B0200084C
:1000A0007B0200087B0200087B0200087B0200083C
:1000B0007B0200087B0200087B0200087B0200082C
:1000C0007B0200087B0200087B0200087B0200081C
:1000D0007B0200087B0200087B0200087B0200080C
:1000E0007B0200087B0200087B02000800F002F897
:1000F00000F03AF80AA090E8000C82448344AAF188
:100100000107DA4501D100F02FF8AFF2090EBAE885
:100110000F0013F0010F18BFFB1A43F0010318473B
:100120003C0300005C030000103A24BF78C878C18B
:10013000FAD8520724BF30C830C144BF04680C60ED
:10014000704700000023002400250026103A28BF35
:1001500078C1FBD8520728BF30C148BF0B60704739
:100160001FB51FBD10B510BD00F03DF91146FFF7DA
:10017000F7FF00F066F800F05BF903B4FFF7F2FF59
:1001800003BC00F063F90000401EB0F1807F01D392
:10019000012070474FF0E02148612B4AF02082F89F
:1001A000140D00208861072008610020704727484F
:1001B0000168491C016070472548816941F01401BC
:1001C0008161244C606820F00F006060606840F03E
:1001D000020060602048016821F00F0101600168A1
:1001E00041F0040101601C4D00261C4FDFF85C80CB
:1001F00015F10805C8F8006072B63846FFF7C4FF6D
:1002000062B607E0D8F80000632803D9E06840F43C
:100210008070E0602868C007F4D1C8F8006072B64A
:100220003846FFF7B1FF62B6404606E001689529FF
:1002300003D9E16821F48071E1602968C907D9D147
:10024000F4E7FFF7B9FF00000FE000E00000002036
:1002500000100240001001400008014000F91500A4
:100260000948804709480047FEE7FEE7FEE7FEE74A
:10027000FEE7FEE7FEE7FEE7FEE7FEE70448054986
:10028000034A054B704700003D030008ED000008DD
:100290007800002078040020780000200CB50021B0
:1002A000484801910091026842F4803202604FF4A4
:1002B000A063026802F400320092019A521C01927B
:1002C000009A12B9019A9A42F3D10268920333D587
:1002D000012100913C490A6842F010020A600A6854
:1002E00022F003020A600A6842F002020A604168D2
:1002F000416041684160416841F48061416041680A
:1003000021F47C114160416841F4E81141600168C9
:1003100041F08071016001688901FCD5416821F0DC
:1003200003014160416841F0020141604168C1F34D
:1003300081010229FAD10CBD00910CBD2148016850
:1003400041F0010101604168204A114041600168AB
:100350001F4A11400160016821F480210160416859
:1003600021F4FE0141604FF41F01816096E71549B9
:1003700010B54868174A10F00C03174803D0042B37
:1003800001D0082B0AD002604968134AC1F3031157
:10039000121D515C0268CA40026010BD4A684B6879
:1003A00002F470124FF0020413F4803F04EB924207
:1003B00002D04B689B0301D5084B00E0054B5A4324
:1003C000E1E7000000100240002002400000FFF8BA
:1003D000FFFFF6FE00127A000400002000093D0035
:1003E000704770477047754600F02CF8AE46050020
:1003F0006946534620F00700854618B020B5FFF740
:100400003DFFBDE820404FF000064FF000074FF0E1
:1004100000084FF0000B21F00701AC46ACE8C00922
:10042000ACE8C009ACE8C009ACE8C0098D4670472B
:1004300010B50446AFF300802046BDE81040FFF73A
:100440009CBE000000487047180000200149182099
:10045000ABBEFEE726000200704700007C040008E7
:100460000000002018000000280100089404000883
:100470001800002060040000440100080000000093
:1004800000A24A0400000000000000000102030472
:04049000060708094A
:04000005080000ED02
:00000001FF
