:020000040800F2
:10000000680700209D050008A5050008A705000851
:10001000A9050008AB050008AD05000800000000B8
:10002000000000000000000000000000AF05000814
:10003000B105000800000000B3050008B505000880
:10004000B7050008B7050008B7050008B7050008A0
:10005000B7050008B7050008B7050008B705000890
:10006000B7050008B7050008B7050008B705000880
:10007000B7050008B7050008B7050008B705000870
:10008000B7050008B7050008B7050008B705000860
:10009000B7050008B7050008B7050008B705000850
:1000A000B7050008B7050008B7050008B705000840
:1000B00089010008B7050008B7050008B705000862
:1000C000B7050008B7050008B7050008B705000820
:1000D000B7050008B7050008B7050008B705000810
:1000E000B7050008B7050008B705000800F002F8DA
:1000F00000F03AF80AA090E8000C82448344AAF188
:100100000107DA4501D100F02FF8AFF2090EBAE885
:100110000F0013F0010F18BFFB1A43F0010318473B
:100120000061000020610000103A24BF78C878C147
:10013000FAD8520724BF30C830C144BF04680C60ED
:10014000704700000023002400250026103A28BF35
:1001500078C1FBD8520728BF30C148BF0B60704739
:100160001FB51FBD10B510BD04F040FF1146FFF7CD
:10017000F7FF00F05BF804F05EFF03B4FFF7F2FF57
:1001800003BC04F061FF000010B582480068401C09
:1001900080490860084600687F49884202D90020EB
:1001A0007C4908600121880704F0F0FD10BD00B50E
:1001B00089B00121082001F02EFA0121084601F042
:1001C00053FA0121084601F026FA0121734800F094
:1001D000A7FD06A802F078FC0020ADF81800ADF8E5
:1001E0001A004FF4FA70ADF81C0006A9000701F0E0
:1001F00043FC02A802F071FC6020ADF80800012069
:10020000ADF80A0002A9800701F0BBFE18208DF8A6
:1002100007004FF48060ADF8040001208DF806005F
:1002200001A95F4800F052FA09B000BD8AB0FFF79B
:10023000BEFF72B601221146900702F0EFFC1C20AF
:10024000002809DB00F01F020121914042099200C1
:1002500002F1E022C2F8001100BF62B60121880756
:1002600002F057FC00242CE0204605F0B0FC0746C5
:100270004C4A4D4B05F0D6FC00224C4BCDE9000119
:1002800005F01EFB054605F01BFA0022484BCDE9A0
:10029000020105F0C7FC0022454BCDE9040105F041
:1002A0005FFA00224FF08043CDE9060105F008FB1C
:1002B000CDE9080105F05CFC00B23E4921F81400CC
:1002C000641CB4F5B47FCFDB5EE035480C300068C9
:1002D00000F48060384908802E480068504553D0AB
:1002E0002C48006840F2164148434FF4C871B0FBF7
:1002F000F1F04FF4B471B0FBF1F201FB12002D49A3
:1003000031F810002D4908802248006840F226513B
:1003100048434FF4C871B0FBF1F04FF4B471B0FB37
:10032000F1F201FB1200234931F810002449088042
:10033000184800684FF4C46148434FF4C871B0FBDB
:10034000F1F04FF4B471B0FBF1F201FB1200194966
:1003500031F810001B4908801848B0F9000018490E
:10036000B1F9001008441749B1F9001008440321FD
:1003700090FBF1F91FFA89F14FF0804004F0E7FAA1
:10038000044800680FFA80FA9FE772B600E0ABBE3F
:10039000FDE7000008000020803202000003180082
:1003A000000C014097D17E5AFB2109400080664035
:1003B00000407F40380000200C000020000000209A
:1003C00002000020040000200CB5002001900090E5
:1003D0006A48006840F480306849086000BF674898
:1003E000006800F4003000900198401C01900098D3
:1003F00018B90198B0F5A06FF1D16048006800F419
:10040000003010B10120009001E000200090009821
:10041000012843D15A48006840F01000584908604C
:100420000846006820F0030008600846006840F0B5
:1004300002000860514840685049486008464068DA
:1004400048600846406840F480604860084640685C
:1004500020F47C1048600846406840F4E81048608A
:100460000846006840F08070086000BF434800689C
:1004700000F000700028F9D04048406820F00300E8
:100480003E4948600846406840F00200486000BFAE
:100490003A48406800F00C000828F9D10CBD10B5AE
:1004A000FFF792FF10BD10B53448006840F001001E
:1004B0003249086008464068324908402F49486080
:1004C00008460068304908402C4908600846006822
:1004D00020F4802008600846406820F4FE00486050
:1004E0004FF41F008860FFF7DAFF10BD10B5002140
:1004F00000200022214B5B6803F00C0121B104298C
:1005000006D0082928D107E0204B214C236027E0A2
:100510001E4B1F4C236023E0184B5B6803F47010E4
:10052000164B5B6803F48032022303EB904022B940
:10053000184B4343164C23600DE0104B5B6803F4EB
:10054000003323B1134B4343114C236003E00F4BA3
:1005500043430F4C236003E00C4B0D4C236000BF62
:1005600000BF064B5B68C3F303130B4CE15C084B05
:100570001B68CB40064C236010BD000000100240F9
:10058000002002400000FFF8FFFFF6FE00127A0094
:100590001000002000093D00140000200948804799
:1005A00009480047FEE7FEE7FEE7FEE7FEE7FEE755
:1005B000FEE7FEE7FEE7FEE704480549034A054B70
:1005C00070470000A7040008ED0000086803002041
:1005D000680700206803002010B50446FC488442E8
:1005E00011D0FC4884420ED0FB4884420BD0FB481B
:1005F000844208D0FA48844205D0FA48844202D0A6
:10060000F948844200D103E06F21F8A0FFF7BDFE56
:10061000EF48844208D10121042001F04EF8002166
:10062000042001F04AF846E0EA48844208D101215A
:10063000082001F042F80021082001F03EF83AE0DD
:10064000E548844208D10121102001F036F800214C
:10065000102001F032F82EE0E048844208D1012158
:10066000202001F02AF80021202001F026F822E0C5
:10067000DB48844208D10121402001F01EF800210E
:10068000402001F01AF816E0D648844208D1012132
:10069000802001F012F80021802001F00EF80AE01D
:1006A000D148844207D10121801501F006F80021CC
:1006B000A01501F002F810BD10B50121084600F0A8
:1006C000FCFF0021012000F0F8FF10BD2DE9F05FD4
:1006D00005460C464FF00009CA4600260027B046E2
:1006E000B346BB48854211D0BA4885420ED0BA48BD
:1006F00085420BD0B948854208D0B948854205D01B
:10070000B848854202D0B848854200D103E0B22102
:10071000B6A0FFF73AFEE078A0B1E078042811D047
:10072000E07828280ED0E07848280BD0E07814280C
:1007300008D0E078102805D0E0781C2802D0E078B6
:10074000182800D103E0B321A8A0FFF71EFE002067
:1007500010B9208800B103E0B421A4A0FFF715FE72
:10076000E07800F00F09E07800F0100080B1A07888
:10077000012805D0A078022802D0A078032800D153
:1007800003E0BB2199A0FFF700FEA07840EA090929
:10079000207838B3D5F8008000261FE0012000FA49
:1007A00006F7208800EA070ABA4516D1B7000F20DD
:1007B00000FA07FB28EA0B0809FA07F040EA0808E4
:1007C000E078282803D10120B040686105E0E07896
:1007D000482802D10120B0402861761C082EDDD3C4
:1007E000C5F800802088FF282BDDD5F8048000267E
:1007F00023E006F10800012101FA00F7208800EA51
:10080000070ABA4518D1B7000F2000FA07FB28EAFB
:100810000B0809FA07F040EA0808E078282803D115
:1008200006F1080081406961E078482804D106F1AA
:100830000800012181402961761C082ED9D3C5F812
:100840000480BDE8F09F4FF6FF71018002218170A6
:100850000421C170704770B505460C4600265C48FF
:10086000854211D05B4885420ED05B4885420BD053
:100870005A48854208D05A48854205D05948854291
:1008800002D05948854200D104E04FF48F7157A03F
:10089000FFF77BFD012C25D0022C23D0042C21D086
:1008A000082C1FD0102C1DD0202C1BD0402C19D070
:1008B000802C17D0B4F5807F14D0B4F5007F11D010
:1008C000B4F5806F0ED0B4F5006F0BD0B4F5805F37
:1008D00008D0B4F5005F05D0B4F5804F02D0B4F570
:1008E000004F00D104E040F21F1140A0FFF74DFD82
:1008F000A868204008B1012600E00026304670BDFF
:1009000010B504463248844211D0324884420ED099
:10091000314884420BD03148844208D03048844268
:1009200005D03048844202D02F48844200D104E0F0
:100930004FF49A712DA0FFF728FDA06880B210BD7A
:1009400070B505460C4600262148854211D0214845
:1009500085420ED0204885420BD02048854208D0E1
:100960001F48854205D01F48854202D01E48854257
:1009700000D104E04FF4A2711CA0FFF706FD012C8A
:1009800025D0022C23D0042C21D0082C1FD0102CD1
:100990001DD0202C1BD0402C19D0802C17D0B4F5A2
:1009A000807F14D0B4F5007F11D0B4F5806F0ED0E5
:1009B000B4F5006F0BD0B4F5805F08D0B4F5005FDC
:1009C00005D0B4F5804F02D0B4F5004F1ED123E01E
:1009D00000080140000C01400010014000140140DB
:1009E00000180140001C0140002001407372635C4C
:1009F00073706C5C7372635C73746D333266313028
:100A0000785F6770696F2E630000000040F2451147
:100A1000AFF22800FFF7B9FCE868204008B10126D2
:100A200000E00026304670BD10B50446FE48844202
:100A300011D0FE4884420ED0FD4884420BD0FD48C0
:100A4000844208D0FC48844205D0FC48844202D04D
:100A5000FB48844200D105E04FF4AD71AFF2740061
:100A6000FFF793FCE06880B210BD70B504460D46F8
:100A7000ED48844211D0ED4884420ED0EC488442C7
:100A80000BD0EC48844208D0EB48844205D0EB48B8
:100A9000844202D0EA48844200D105E040F2691164
:100AA000AFF2B800FFF771FC002008B905B105E00E
:100AB0004FF4B571AFF2CC00FFF767FC256170BD54
:100AC00070B504460D46D848844211D0D7488442B8
:100AD0000ED0D74884420BD0D648844208D0D6489E
:100AE000844205D0D548844202D0D548844200D102
:100AF00005E040F27911AFF20C10FFF746FC002040
:100B000008B905B105E04FF4BD71AFF22010FFF751
:100B10003CFC656170BD70B505460C461646C24882
:100B2000854211D0C14885420ED0C14885420BD0C4
:100B3000C048854208D0C048854205D0BF4885429C
:100B400002D0BF48854200D105E040F28D11AFF2DE
:100B50006410FFF71AFC012C25D0022C23D0042CA2
:100B600021D0082C1FD0102C1DD0202C1BD0402CA5
:100B700019D0802C17D0B4F5807F14D0B4F5007F45
:100B800011D0B4F5806F0ED0B4F5006F0BD0B4F572
:100B9000805F08D0B4F5005F05D0B4F5804F02D077
:100BA000B4F5004F00D105E04FF4C771AFF2C410A7
:100BB000FFF7EBFB0EB1012E00D105E040F28F11E3
:100BC000AFF2D810FFF7E1FB0EB12C6100E06C61D1
:100BD00070BD70B504460D469348844211D09348C9
:100BE00084420ED0924884420BD09248844208D06E
:100BF0009148844205D09148844202D09048844272
:100C000000D105E04FF4D271AFF22020FFF7BDFB19
:100C1000E56070BD70B504460D464FF480368248DD
:100C2000844211D0814884420ED0814884420BD046
:100C30008048844208D08048844205D07F4884425E
:100C400002D07F48844200D105E040F2B511AFF2F6
:100C50006420FFF79AFB002008B905B105E04FF4C6
:100C6000DB71AFF27820FFF790FB2E43A661A56100
:100C7000A661A669A66970BD70B505460C4600263A
:100C80003DB1012D05D0022D03D0032D01D0042D3F
:100C900000D105E04FF4E971AFF2B020FFF775FB2A
:100CA000ECB1012C1BD0022C19D0032C17D0042C32
:100CB00015D0052C13D0062C11D0072C0FD0082CE2
:100CC0000DD0092C0BD00A2C09D00B2C07D00C2CE2
:100CD00005D00D2C03D00E2C01D00F2C00D105E037
:100CE00040F2D311AFF2FC20FFF74FFB55480668E6
:100CF0004FF68070064046EA0516264351480660C6
:100D000070BD10B504460CB1012C00D105E04FF4C4
:100D1000F371AFF22830FFF738FB4B48C46110BDC8
:100D20002DE9F04704460E460027B8460025A9469F
:100D3000012C77D0022C75D0042C73D0082C71D0E4
:100D4000424884426ED04148203084426AD04048B4
:100D5000844267D03E488030844263D03D4884421C
:100D600060D03D4884425DD03C4884425AD03C48E3
:100D7000844257D03B48844254D0B4F5805F51D070
:100D8000B4F5EA1F4ED0B4F5EB1F4BD0B4F5004FCD
:100D900048D03548844245D0401C844242D0801C13
:100DA00084427FD0001D84427CD02F480F30844283
:100DB00078D0B4F1201F75D04FEAF030844271D062
:100DC0002A4884426ED02A4884426BD02948844203
:100DD00068D02948844265D02848844262D0B4F55E
:100DE000011F5FD0264884425CD0401C844259D009
:100DF000801C844256D0001D844253D020480F30BE
:100E000084424FD01E481F3084424BD01C483F3094
:100E1000844247D01A487F30844243D01848FF307C
:100E200084422FE03EE0000000080140000C014039
:100E3000001001400014014000180140001C014056
:100E4000002001400000014000002042100014007A
:100E500040001600000118000002180000031800EE
:100E600000081A00000C1A000100200000013000E8
:100E7000000230000004300000112000002020009B
:100E8000010000800ED0664884420BD06548844241
:100E900008D06548844205D06448844202D0644842
:100EA000844200D105E040F22A21AFF2C040FFF7B2
:100EB0006CFA0EB1012E00D105E040F22B21AFF209
:100EC000D440FFF762FA04F00040B0F1004F02D1C5
:100ED0005848C56901E057484568C4F30349A7B2BB
:100EE00004F44010B0F5401F08D125F0706551485A
:100EF000406820F070604F49486013E004F48010AF
:100F0000B0F5801F07D1032000FA09F825EA08058B
:100F100045F0706506E0600D000107FA00F08543BA
:100F200045F0706526B1600D010107FA01F0054337
:100F300004F00040B0F1004F02D13E48C56101E02D
:100F40003C484560BDE8F08770B505460C46002674
:100F50005DB1012D09D0022D07D0032D05D0042D40
:100F600003D0052D01D0062D00D105E040F265210A
:100F7000AFF28850FFF709FAECB1012C1BD0022C1C
:100F800019D0032C17D0042C15D0052C13D0062C07
:100F900011D0072C0FD0082C0DD0092C0BD00A2C07
:100FA00009D00B2C07D00C2C05D00D2C03D00E2C07
:100FB00001D00F2C00D105E040F26621AFF2D450F1
:100FC000FFF7E3F9A007010F0F2000FA01F6194817
:100FD0000830A11050F82100B04316490831A21082
:100FE00041F822000846A11050F82100A107090F7E
:100FF00005FA01F108430F490831A21041F8220017
:1010000070BD10B504460CB1012C00D105E04FF4C1
:101010001E71AFF22860FFF7B8F90748046010BDF1
:1010200000020080000400800008008000100080A2
:101030000020008000000140DC002042FE480068E3
:1010400040F00100FC49086008464068FB49084040
:10105000F949486008460068F9490840F6490860BF
:101060000846006820F4802008600846406820F4A4
:10107000FE0048604FF41F008860704710B50446BA
:101080002CB1B4F5803F02D0B4F5802F00D104E03C
:1010900040F21111EBA0FFF778F9E748006820F45F
:1010A0008030E54908600846006820F48020086028
:1010B000B4F5803F03D0B4F5802F0ED106E0DE48B2
:1010C000006840F48030DC49086007E0DA480068D6
:1010D00040F4A020D849086000E000BF00BF10BD68
:1010E0002DE9F0410446002500260027212C13D0CD
:1010F000312C11D0392C0FD0412C0DD0612C0BD0BC
:101100007A2C09D07B2C07D07C2C05D07D2C03D0E9
:101110007E2C01D07F2C00D104E040F23451C9A0D4
:10112000FFF733F96511012D02D1C348066806E0C7
:10113000022D02D1C048066A01E0BF48466A04F0A9
:101140001F050120A840304008B1012700E000271A
:101150003846BDE8F08138B5002000900024002515
:1011600000BF3120FFF7BCFF05460098401C0090EF
:101170000098B0F5A06F01D0002DF2D03120FFF71C
:10118000AFFF08B1012400E00024204638BD70B54F
:10119000044600251F2C00DC04E04FF4A971A9A02F
:1011A000FFF7F3F8A448056825F0F80545EAC405FB
:1011B000056070BD10B504460CB1012C00D104E0EF
:1011C00040F265119FA0FFF7E0F8A548046010BD4C
:1011D00070B505460C4600262DB1B5F5803F02D00E
:1011E000B5F5403F00D104E040F27F1195A0FFF734
:1011F000CCF84CB3B4F5802F26D0B4F5002F23D013
:10120000B4F5402F20D0B4F5801F1DD0B4F5A01F39
:101210001AD0B4F5C01F17D0B4F5E01F14D0B4F540
:10122000001F11D0B4F5101F0ED0B4F5201F0BD045
:10123000B4F5301F08D0B4F5401F05D0B4F5501FE9
:1012400002D0B4F5601F00D104E04FF4C0717DA05E
:10125000FFF79BF87848466826F47C1645EA0400B8
:1012600006437548466070BD10B504460CB1012CAC
:1012700000D104E04FF4CA7172A0FFF786F87848F5
:10128000046610BD70B5044600251CB1012C01D0C8
:10129000022C00D104E04FF40E716AA0FFF775F83C
:1012A0006548456825F003052543456070BD6248E3
:1012B000406800F00C00704770B5044600257CB112
:1012C000802C0DD0902C0BD0A02C09D0B02C07D0A6
:1012D000C02C05D0D02C03D0E02C01D0F02C00D1B4
:1012E00004E04FF4197157A0FFF74FF852484568D2
:1012F00025F0F0052543456070BD70B50446002516
:101300005CB1B4F5806F08D0B4F5A06F05D0B4F52A
:10131000C06F02D0B4F5E06F00D104E040F27E214E
:1013200048A0FFF732F84448456825F4E0652543B6
:10133000456070BD70B5044600255CB1B4F5806FA2
:1013400008D0B4F5A06F05D0B4F5C06F02D0B4F5E5
:10135000E06F00D104E04FF426713AA0FFF715F8D2
:101360003548456825F4605545EAC405456070BDBB
:1013700070B504460D4604F0E00008B904B104E07D
:1013800040F2BF212FA0FFF700F80DB1012D00D1D1
:1013900004E04FF430712BA0FEF7F7FF2DB1264883
:1013A000407A20432449487204E02348407AA0430D
:1013B0002149487270BD10B504460CB1012C00D112
:1013C00004E040F2DB211FA0FEF7DFFF2448D83005
:1013D000046010BD70B50446002544B1B4F5804FDB
:1013E00005D0B4F5004F02D0B4F5404F00D104E071
:1013F00040F2023113A0FEF7C8FF0F48456825F4FC
:1014000040452543456070BD10B504461CB1012C14
:1014100001D0042C00D104E04FF4507109A0FEF774
:10142000B4FF0020044920310870034981F82000EE
:10143000012C19D0042C15E0001002400000FFF828
:10144000FFFFF6FE7372635C73706C5C7372635CB7
:1014500073746D3332663130785F7263632E63006C
:101460000000424208D103E00120F449087004E082
:101470000520F249087000E000BF00BF10BD10B5A4
:1014800004460CB1012C00D105E040F26131AFF20D
:101490004C00FEF77AFFEA48046010BD10B5044620
:1014A000B4F5807F05D0B4F5007F02D0B4F5407F5D
:1014B00000D105E040F27231AFF27800FEF765FF2F
:1014C000DE482038006A2043DC492039086210BD1C
:1014D00010B504460CB1012C00D105E04FF4607149
:1014E000AFF2A000FEF751FFD5484438046010BDAC
:1014F00030B50021002200240023D04D203D6D682E
:1015000005F00C0121B1042905D0082926D105E0F8
:10151000CC4D056025E0CB4D056022E0C74D203D58
:101520006D6805F47012C54D203D6D6805F480347A
:10153000022505EB92421CB9C34D554305600CE0F2
:10154000BE4D203D6D6805F400351DB1BE4D5543BF
:10155000056002E0BB4D5543056002E0B94D0560F2
:1015600000BF00BFB54D203D6D6805F0F0010909D1
:10157000B64D6B5C0568DD404560B04D203D6D6843
:1015800005F4E061090AB14D6B5C4568DD4085609A
:10159000AA4D203D6D6805F46051C90AAB4D6B5CE6
:1015A0004568DD40C560A54D203D6D6805F44041AE
:1015B000890BA74D6B5CC568B5FBF3F5056130BDC4
:1015C00070B504460D4640F2575024EA000008B9B1
:1015D00004B105E040F22B41AFF29810FEF7D5FEC2
:1015E0000DB1012D00D105E040F22C41AFF2AC105D
:1015F000FEF7CBFE3DB191482038406920438F492A
:101600002039486106E08D4820384069A0438B4965
:101610002039486170BD70B504460D468D482040A4
:1016200008B904B105E040F24A41AFF2E810FEF714
:10163000ACFE0DB1012D00D105E040F24B41AFF2FF
:10164000FC10FEF7A2FE3DB17C48203880692043A3
:101650007A492039886106E0784820388069A043BB
:1016600076492039886170BD70B504460D467A48C8
:10167000204008B904B105E040F26941AFF23C20D6
:10168000FEF783FE0DB1012D00D105E040F26A4165
:10169000AFF25020FEF779FE3DB168482038C069AE
:1016A000204366492039C86106E064482038C06993
:1016B000A04362492039C86170BD70B504460D462B
:1016C0006448204008B904B105E040F2A441AFF2FB
:1016D0008C20FEF75AFE0DB1012D00D105E040F23D
:1016E000A541AFF2A020FEF750FE3DB1534820388F
:1016F000C068204351492039C86006E04F4820386F
:10170000C068A0434D492039C86070BD70B504461B
:101710000D465148204008B904B105E040F2C341EC
:10172000AFF2E020FEF731FE0DB1012D00D105E052
:1017300040F2C441AFF2F420FEF727FE3DB13F482E
:101740002038006920433D492039086106E03B48C4
:1017500020380069A04339492039086170BD10B5AF
:1017600004460CB1012C00D105E04FF49B61AFF2AF
:101770002C30FEF70AFE32484038046010BD10B528
:1017800004460CB1012C00D105E040F2E541AFF276
:101790004C30FEF7FAFD3148C46410BD10B5044664
:1017A0003CB1052C05D0042C03D0062C01D0072C0D
:1017B00000D105E040F20551AFF27830FEF7E5FDCB
:1017C0001E482038C47110BD1C482038406A40F0C3
:1017D00080701A4920394862704770B50446002568
:1017E000012C09D0022C07D0042C05D0082C03D0E2
:1017F000102C01D0802C00D105E040F27E51AFF2D8
:10180000BC30FEF7C2FD0D4820388068204008B18A
:10181000012500E00025284670BD10B5044604F0FF
:10182000600008B904B105E040F2AB51AFF2EC3012
:10183000FEF7ABFD01482038847210BD2010024035
:101840008004424200127A0000093D00240000207A
:10185000340000200200C0FF003601810000424237
:1018600010B50446F84884422FD0B4F1804F2CD0F4
:10187000F648844229D0F648844226D0F54884426E
:1018800023D0F548844220D0F44884421DD0F44847
:1018900084421AD0F348844217D0F348844214D0CB
:1018A000F248844211D0F24884420ED0F14884427A
:1018B0000BD0F148844208D0F048844205D0F0486B
:1018C000844202D0EF48844200D103E07D21EEA0A3
:1018D000FEF75BFDDC48844208D10121C014FFF70C
:1018E000ECFE0021E014FFF7E8FEC4E0B4F1804F05
:1018F00008D101210846FFF709FF00210120FFF769
:1019000005FFB8E0D148844208D101210220FFF749
:10191000FDFE00210220FFF7F9FEACE0CC48844236
:1019200008D101210420FFF7F1FE00210420FFF778
:10193000EDFEA0E0C748844208D101210820FFF74E
:10194000E5FE00210820FFF7E1FE94E0C248844252
:1019500008D101211020FFF7D9FE00211020FFF748
:10196000D5FE88E0BD48844208D101212020FFF740
:10197000CDFE00212020FFF7C9FE7CE0B84884425C
:1019800008D101214014FFF798FE00216014FFF7F1
:1019900094FE70E0B348844209D10121C804FFF7E6
:1019A0008CFE00214FF40020FFF787FE63E0AE4875
:1019B000844209D101210805FFF77FFE00214FF481
:1019C0008010FFF77AFE56E0A848844209D1012131
:1019D0004805FFF772FE00214FF40010FFF76DFE7F
:1019E00049E0A348844208D101214020FFF78EFE40
:1019F00000214020FFF78AFE3DE09E48844208D146
:101A000001218020FFF782FE00218020FFF77EFE6B
:101A100031E09948844208D101218015FFF776FE14
:101A20000021A015FFF772FE25E09448844209D1F9
:101A300001210804FFF741FE00214FF48030FFF739
:101A40003CFE18E08E48844209D101214804FFF78A
:101A500034FE00214FF40030FFF72FFE0BE08948E1
:101A6000844208D101218804FFF727FE00214FF4AA
:101A70008020FFF722FE10BD70B504460D460026FB
:101A8000714884422FD0B4F1804F2CD06F488442EB
:101A900029D06F48844226D06E48844223D06E48B5
:101AA000844220D06D4884421DD06D4884421AD0B3
:101AB0006C48844217D06C48844214D06B488442EE
:101AC00011D06B4884420ED06A4884420BD06A48D9
:101AD000844208D06948844205D06948844202D0D3
:101AE0006848844200D103E0E72167A0FEF74DFC7F
:101AF000688858B16888102808D06888202805D0E0
:101B00006888402802D06888602800D103E0E82176
:101B10005DA0FEF73AFCE88838B1E888B0F5807F30
:101B200003D0E888B0F5007F00D103E0E92156A09A
:101B3000FEF72BFC2688444884420ED04848844255
:101B40000BD0B4F1804F08D04048844205D04048C3
:101B5000844202D03F48844204D14FF68F70064041
:101B6000688806433C48844207D03C48844204D0FD
:101B70004FF6FF400640E88806432680A888A085E7
:101B800028882085304884420BD03548844208D0CC
:101B90003A48844205D03A48844202D039488442C7
:101BA00001D1287A20860120A08270BD2DE9F04164
:101BB00004460D464FF000080026002722488442C4
:101BC00029D0B4F1804F26D02048844223D0204829
:101BD000844220D01F4884421DD0214884421AD01C
:101BE0002048844217D02048844214D01F488442A1
:101BF00011D01F4884420ED01E4884420BD01E488C
:101C0000844208D01D48844205D01D48844202D039
:101C10001C48844200D104E04FF48E711AA0FEF7F4
:101C2000B4FB288870B1288810280BD02888202879
:101C300008D02888302805D02888602802D0288835
:101C400070282FD134E00000002C01400004004037
:101C500000080040000C004000100040001400404C
:101C600000340140004C014000500140005401404C
:101C700000180040001C00400020004000400140CF
:101C800000440140004801407372635C73706C5CF7
:101C90007372635C73746D3332663130785F74696C
:101CA0006D2E630040F21D11AFF22400FEF76DFBB4
:101CB000688810B16888012800D105E04FF48F7161
:101CC000AFF23C00FEF761FB288910B12889022899
:101CD00000D105E040F21F11AFF25400FEF755FBB2
:101CE000208C4FF6FE7108402084268CA788B4F81B
:101CF00018804FF68F7008EA0008881E08EA00086E
:101D0000288840EA0808481E064028890643688853
:101D10000643FE4884420BD0FD48844208D0FD486B
:101D2000844205D0FC48844202D0FC48844245D11C
:101D3000A88810B1A888042800D105E04FF49E714E
:101D4000AFF2BC00FEF721FB688910B16889082852
:101D500000D105E040F23D11AFF2D400FEF715FBD3
:101D6000E889B0F5007F01D0E88900B905E04FF4BB
:101D70009F71AFF2EC00FEF708FBA889B0F5807FF9
:101D800001D0A88900B905E040F23F11AFF2081078
:101D9000FEF7FBFA4FF6F7700640688906434FF6E8
:101DA000FB700640A88806434FF6FF6007404FF6D9
:101DB000FF500740A8890743E8890743A780A4F894
:101DC0001880E888A0862684BDE8F0812DE9F041DE
:101DD00005460C464FF0000800260027CB488542F8
:101DE00017D0B5F1804F14D0CD48854211D0CD48E1
:101DF00085420ED0CC4885420BD0C548854208D0DC
:101E0000CA48854205D0CA48854202D0C1488542A9
:101E100000D105E040F26F11AFF29410FEF7B5FA71
:101E2000208870B1208810280BD02088202808D066
:101E30002088302805D02088602802D0208870288B
:101E400000D105E04FF4B871AFF2C410FEF79DFA6F
:101E5000608810B16088012800D105E040F271115E
:101E6000AFF2DC10FEF791FA208910B12089022828
:101E700000D105E04FF4B971AFF2F410FEF785FA26
:101E8000288C4FF6EF71084028842E8CAF88B5F867
:101E9000188048F6FF7008EA00084FF6FF4008EA8D
:101EA000000820884FF6FF7101EA002040EA080888
:101EB0004FF6DF700640208901EA00100643608873
:101EC00001EA001006439148854202D090488542BD
:101ED0004FD1A08810B1A088042800D105E040F2BD
:101EE0008F11AFF25C20FEF750FA608910B1608963
:101EF000082800D105E04FF4C871AFF27420FEF756
:101F000044FAE089B0F5007F01D0E08900B905E02E
:101F100040F29111AFF29020FEF737FAA089B0F5A8
:101F2000807F01D0A08900B905E04FF4C971AFF2FC
:101F3000A820FEF72AFA4FF67F70064060894FF618
:101F4000FF7101EA001006434FF6BF700640A088FB
:101F500001EA001006434FF6FF3007404FF2FF70D2
:101F60000740A08901EA80000743E08901EA800078
:101F70000743AF80A5F81880E08828872E84BDE845
:101F8000F0812DE9F04105460C464FF0000800268F
:101F900000275E4885420ED0B5F1804F0BD06048D7
:101FA000854208D05F48854205D05F48854202D00F
:101FB0005748854200D105E040F2C111AFF23830F8
:101FC000FEF7E3F9208870B1208810280BD0208814
:101FD000202808D02088302805D02088602802D00A
:101FE0002088702800D105E04FF4E171AFF268302D
:101FF000FEF7CBF9608810B16088012800D105E0B8
:1020000040F2C311AFF28030FEF7BFF9208910B162
:102010002089022800D105E04FF4E271AFF2983038
:10202000FEF7B3F9288C4FF6FF61084028842E8C08
:10203000AF88B5F81C804FF68F7008EA00084FF69D
:10204000FC7008EA0008208840EA08084FF6FF50B4
:10205000064020894FF6FF7101EA002006436088A0
:1020600001EA002006432948854202D028488542DB
:1020700064D1A08810B1A088042800D105E04FF4F5
:10208000F071AFF2FC30FEF780F9608910B1608921
:10209000082800D105E040F2E111AFF21440FEF74C
:1020A00074F9E089B0F5007F01D0E08900B905E05E
:1020B0004FF4F171AFF23040FEF767F9A089B0F547
:1020C000807F01D0A08900B905E040F2E311AFF2B2
:1020D0004840FEF75AF94FF2FF70064060894FF60C
:1020E000FF7101EA002006434FF6FF300640A0884A
:1020F00001EA002006434EF6FF7007404DF6FF70E0
:102100000740A08901EA0010074313E0002C0140BA
:1021100000340140004001400044014000480140BB
:102120000004004000080040000C0040004C01404A
:1021300000180040E08901EA00100743AF80A5F8CD
:102140001C80E088A8872E84BDE8F0812DE9F0414D
:1021500004460D4600270026B046F84884420ED0BB
:10216000B4F1804F0BD0F648844208D0F548844241
:1021700005D0F548844202D0F448844200D105E0FD
:102180004FF40471AFF20050FEF7FFF8288870B1E9
:10219000288810280BD02888202808D028883028A4
:1021A00005D02888602802D02888702800D105E052
:1021B00040F21121AFF23050FEF7E7F8688810B115
:1021C0006888012800D105E040F21221AFF24850A2
:1021D000FEF7DBF8288910B12889022800D105E034
:1021E00040F21321AFF26050FEF7CFF8208C4EF68C
:1021F000FF7108402084268CB4F80480A78B48F631
:10220000FF7007404FF6FF40074028884FF6FF71E8
:1022100001EA002007434DF6FF700640288901EAD5
:1022200000300643688801EA00300643C348844210
:1022300002D0C648844217D1A889B0F5807F01D06A
:10224000A88900B905E04FF40C71AFF2C450FEF755
:102250009CF84BF6FF7008EA0008A8894FF6FF715A
:1022600001EA801040EA0808A4F80480A783E888FF
:10227000A4F840002684BDE8F08170B504460D4600
:10228000AE4884420ED0B4F1804F0BD0AC488442AB
:1022900008D0AC48844205D0AB48844202D0AB4859
:1022A000844200D105E040F67611AFF22460FEF7DB
:1022B0006CF82DB1042D03D0082D01D00C2D00D1C8
:1022C00005E040F67711AFF24060FEF75EF8A08BB4
:1022D0004FF2FF310840A083A08B4FF6FF7101EA57
:1022E00005210843A08370BDF0B50C4615460022B9
:1022F00000210026078C4EF6FF7C07EA0C070784B6
:10230000828B018C4FF6FF7707EA043640F6FF47D1
:102310003A404FF6FF7707EA05273A434FF6FF7733
:1023200007EA03373A43854FB8420ED0874FB84289
:102330000BD0B0F1804F08D0814FB84205D0814F0B
:10234000B84202D0804FB84206D14DF6FF773940EF
:1023500046F48057394305E047F6FF57394044F4C7
:102360008057394382830184F0BD70B504460D4621
:10237000724884420ED0B4F1804F0BD07048844232
:1023800008D07048844205D06F48844202D06F481C
:10239000844200D105E04FF41661AFF21470FDF7EE
:1023A000F4FF2DB1042D03D0082D01D00C2D00D148
:1023B00005E040F66111AFF23070FDF7E6FFA08B4B
:1023C0004FF6F3710840A083A08B2843A08370BD13
:1023D000F0B50C461546002200210026078C4FF66A
:1023E000FF6C07EA0C070784828B018C4FF6FF779E
:1023F00007EA04264FF60C773A404FF6FF7707EAD4
:1024000003172F433A434D4FB8420ED04F4FB842B7
:102410000BD0B0F1804F08D0494FB84205D0494F9A
:10242000B84202D0484FB84206D14FF6FF57394064
:1024300046F48077394305E04FF2FF57394044F4C2
:102440008077394382830184F0BD70B504460D4620
:102450003A48844217D0B4F1804F14D038488442AF
:1024600011D0384884420ED0374884420BD03748C8
:10247000844208D03648844205D03648844202D08F
:102480003548844200D105E040F64A11AFF6080015
:10249000FDF77BFF2DB1042D03D0082D01D00C2DAD
:1024A00000D105E040F64B11AFF62400FDF76DFFBB
:1024B000208B4FF2FF3108402083208B4FF6FF71B5
:1024C00001EA05210843208370BDF0B50C4615468E
:1024D000002200210026078C4FF6EF7C07EA0C074C
:1024E0000784028B018C4FF6FF7707EA041640F64B
:1024F000FF473A404FF6FF7707EA03373A434FF674
:10250000FF7707EA05273A430C4FB8420ED00F4F2A
:10251000B8420BD0B0F1804F08D0094FB84205D077
:10252000084FB84202D0084FB84217D14FF6DF77B4
:10253000394046F01007394316E00000002C0140F6
:102540000004004000080040000C0040003401403E
:10255000004C014000180040004001404FF65F77FA
:10256000394044F01007394302830184F0BD70B54F
:1025700004460D46FB48844229D0B4F1804F26D052
:10258000F948844223D0F948844220D0F848844254
:102590001DD0F84884421AD0F748844217D0F74833
:1025A000844214D0F648844211D0F64884420ED0BA
:1025B000F54884420BD0F548844208D0F448844260
:1025C00005D0F448844202D0F348844200D105E0AB
:1025D00040F63411AFF65010FDF7D7FE2DB1042DA3
:1025E00003D0082D01D00C2D00D105E040F63511A7
:1025F000AFF66C10FDF7C9FE208B4FF6F371084063
:102600002083208B2843208370BDF0B50C461546EF
:1026100000220021068C4FF6FE773E400684028B96
:10262000018C4FF60C7632407E1C06EA03162E43D0
:102630003243CC4EB0420ED0CE4EB0420BD0B0F1B1
:10264000804F08D0C84EB04205D0C84EB04202D02C
:10265000C74EB04206D14FF6FD76314044F0010638
:10266000314305E04FF6F576314044F00106314341
:1026700002830184F0BD70B504460D46288840B140
:102680002888042805D02888082802D028880C2803
:1026900000D105E040F24E21AFF61420FDF775FEA3
:1026A000A888012805D0A888022802D0A888032875
:1026B00000D105E040F24F21AFF63420FDF765FE72
:1026C000E88840B1E888042805D0E888082802D0C6
:1026D000E8880C2800D105E04FF41471AFF65820BB
:1026E000FDF753FE28890F2800DC05E040F2512158
:1026F000AFF66C20FDF749FE9A4884420ED09D4803
:1027000084420BD0B4F1804F08D09748844205D062
:102710009648844202D0964884420CD1688810B111
:102720006888022800D115E040F25621AFF6A820B3
:10273000FDF72BFE0EE0688828B16888022802D0D9
:1027400068880A2800D105E040F25A21AFF6C82077
:10275000FDF71BFE2888E0BB8248844229D0B4F1F3
:10276000804F26D08048844223D08048844220D0A5
:102770007F4884421DD07F4884421AD07E488442DC
:1027800017D07E48844214D07D48844211D07D48C1
:1027900084420ED07C4884420BD07C48844208D0CE
:1027A0007B48844205D07B48844202D07A488442E8
:1027B00000D105E040F25E21AFF63430FDF7E5FDD3
:1027C0002B89AA8869882046FFF71FFFE9882046E1
:1027D00000E002E0FFF7CBFE79E0288804282CD146
:1027E0006048844217D0B4F1804F14D05E488442D0
:1027F00011D05E4884420ED05D4884420BD05D48C3
:10280000844208D05C48844205D05E48844202D0AD
:102810005F48844200D105E04FF41A71AFF698305A
:10282000FDF7B3FD2B89AA8869882046FFF74DFE86
:10283000E9882046FFF709FE49E02888082823D1C7
:10284000484884420ED0B4F1804F0BD046488442B1
:1028500008D04648844205D04548844202D04548C5
:10286000844200D105E040F27221AFF6E430FDF77A
:102870008CFD2B89AA8869882046FFF7A9FDE98885
:102880002046FFF772FD22E0364884420ED0B4F1B4
:10289000804F0BD03448844208D03448844205D05D
:1028A0003348844202D03348844200D105E04FF4DB
:1028B0001F71AFF62C40FDF768FD2B89AA88698847
:1028C0002046FFF711FDE9882046FFF7D6FC70BDD2
:1028D0002DE9F04105460C46002601272148854296
:1028E00017D0B5F1804F14D01F48854211D01F4832
:1028F00085420ED01E4885420BD01E48854208D026
:102900001D48854205D01F48854202D02048854297
:1029100000D105E040F29321AFF69440FDF735FD7C
:10292000608808B9022600E00026A088012801D1AD
:10293000022700E00127208880BB2389A2886188C4
:102940002846FFF762FEE1882846FFF710FE23893C
:102950003A4631462846FFF7B8FDE1882846FFF79A
:1029600074FD30E0002C01400004004000080040ED
:10297000000C004000340140004C01400050014078
:102980000054014000180040001C0040002000409E
:10299000004001400044014000480140FFE7238916
:1029A000A28861882846FFF790FDE1882846FFF756
:1029B0004CFD23893A4631462846FFF726FEE1883A
:1029C0002846FFF7D4FDBDE8F08170B505460C46FA
:1029D000FE4885420BD0FE48854208D0FD4885421E
:1029E00005D0FD48854202D0FC48854200D105E073
:1029F00040F2CB21AFF67050FDF7C7FC2088B0F550
:102A0000006F01D0208800B905E04FF43371AFF6B4
:102A10008850FDF7BAFC6088B0F5806F01D06088FF
:102A200000B905E040F2CD21AFF6A450FDF7ADFCB2
:102A3000A08858B1A088B0F5807F07D0A088B0F5F5
:102A4000007F03D0A088B0F5407F00D105E040F2C0
:102A5000CE21AFF6CC50FDF798FC2089B0F5805F11
:102A600001D0208900B905E040F2CF21AFF6E8504F
:102A7000FDF78BFC608918B16089B0F5005F00D16B
:102A800005E04FF43471AFF60060FDF77EFCA089DD
:102A9000B0F5804F01D0A08900B905E040F2D12106
:102AA000AFF61C60FDF771FC208861880843A1889F
:102AB0000843E18808432189084361890843A189C3
:102AC0000843A5F8440070BD4FF6FF7181800021D6
:102AD0000180C180418001727047002101804180E6
:102AE0008180C180018141818181C1817047002144
:102AF00001804180012181800021C18001817047D6
:102B00000021018041808180C180018141818181DA
:102B1000704770B504460D46AC4884422FD0B4F1DE
:102B2000804F2CD0AE48844229D0AE48844226D073
:102B3000AD48844223D0AD48844220D0AC48844282
:102B40001DD0A34884421AD0AA48844217D0AA486C
:102B5000844214D0A948844211D0A94884420ED09E
:102B6000A84884420BD0A848844208D0994884429F
:102B700005D09948844202D09848844200D105E0AB
:102B800040F22931AFF60070FDF7FFFB0DB1012DCA
:102B900000D105E040F22A31AFF61470FDF7F5FBE5
:102BA00025B1208840F00100208004E020884FF605
:102BB000FE710840208070BD70B504460D46834804
:102BC00084420BD08248844208D08248844205D097
:102BD0008148844202D08148844200D105E040F21D
:102BE0004231AFF65C70FDF7D0FB0DB1012D00D185
:102BF00005E040F24331AFF67070FDF7C6FB35B12A
:102C0000B4F8440040F40040A4F8440005E0B4F8EF
:102C10004400C0F30E00A4F8440070BD70B5044633
:102C20000D461646694884422FD0B4F1804F2CD00F
:102C30006B48844229D06B48844226D06A4884423B
:102C400023D06A48844220D0694884421DD060481D
:102C500084421AD06748844217D06748844214D00F
:102C60006648844211D0664884420ED0654884424A
:102C70000BD06548844208D05648844205D0564857
:102C8000844202D05548844200D104E040F26B31C6
:102C90005E48FDF77AFB05F47F4008B905B104E012
:102CA0004FF45B715948FDF770FB0EB1012E00D156
:102CB00004E040F26D315548FDF767FB1EB1A08975
:102CC0002843A08102E0A089A843A08170BD70B50F
:102CD00004460D463D4884422FD0B4F1804F2CD09D
:102CE0003F48844229D03F48844226D03E4884420F
:102CF00023D03E48844220D03D4884421DD03448F1
:102D000084421AD03B48844217D03B48844214D0B6
:102D10003A48844211D03A4884420ED0394884421D
:102D20000BD03948844208D02A48844205D02A482A
:102D3000844202D02948844200D104E04FF46471F7
:102D40003248FDF722FB05F47F4008B905B104E0E5
:102D500040F291312D48FDF718FBA58270BD70B58A
:102D600006460C4615461948864217D0B6F1804FE4
:102D700014D01B48864211D01A4886420ED01A48F9
:102D800086420BD01248864208D01248864205D0AF
:102D90001148864202D01148864200D104E04FF427
:102DA0006B711A48FDF7F1FA94B3012C45D0022C4F
:102DB00043D0032C41D0042C3FD0052C3DD0062C11
:102DC0003BD0072C39D0082C37D022E0002C014012
:102DD00000340140004001400044014000480140EF
:102DE0000004004000080040000C004000100040BB
:102DF00000140040004C01400050014000540140CC
:102E000000180040001C004000200040881C000802
:102E100013E0092C11D00A2C0FD00B2C0DD00C2C48
:102E20000BD00D2C09D00E2C07D00F2C05D0102C58
:102E300003D0112C01D0122C00D104E040F2AD31AE
:102E4000FB48FDF7A2FA95B3B5F5807F2FD0B5F515
:102E5000007F2CD0B5F5407F29D0B5F5806F26D006
:102E6000B5F5A06F23D0B5F5C06F20D0B5F5E06FF4
:102E70001DD0B5F5006F1AD0B5F5106F17D0B5F5A8
:102E8000206F14D0B5F5306F11D0B5F5406F0ED06E
:102E9000B5F5506F0BD0B5F5606F08D0B5F5706F14
:102EA00005D0B5F5805F02D0B5F5885F00D104E0AC
:102EB00040F2AE31DE48FDF768FA44EA0500A6F8B4
:102EC000480070BD70B504460D461646D948844288
:102ED0001DD0B4F1804F1AD0D748844217D0D748BC
:102EE000844214D0D648844211D0D64884420ED0B1
:102EF000D54884420BD0D548844208D0D448844277
:102F000005D0D448844202D0D348844200D104E0A2
:102F100040F2C731C648FDF738FA48F2FF002840B2
:102F200008B905B104E04FF47271C148FDF72DFAFC
:102F30000EB1012E00D104E040F2C931BC48FDF7CA
:102F400024FA1EB1A0892843A08102E0A089A843E9
:102F5000A08170BD10B50446B648844217D0B4F1C4
:102F6000804F14D0B448844211D0B44884420ED06B
:102F7000B34884420BD0B548844208D0B748844255
:102F800005D0B748844202D0B148844200D104E061
:102F90004FF47871A648FDF7F8F920894FF6F871DB
:102FA0000840208110BD70B504460D460026A1489A
:102FB000844217D0B4F1804F14D09F48844211D07E
:102FC0009E4884420ED09E4884420BD09F48844243
:102FD00008D0A248844205D0A148844202D09C482F
:102FE000844200D104E040F2D1419148FDF7CDF98F
:102FF0006DB1102D0BD0202D09D0302D07D0402DD4
:1030000005D0502D03D0602D01D0702D00D104E0EB
:1030100040F2D2418648FDF7B8F926894FF68F7005
:1030200006402E43268170BD70B504460D4681488A
:10303000844217D0B4F1804F14D07F48844211D01D
:103040007E4884420ED07E4884420BD07F48844222
:1030500008D08248844205D08148844202D07C480E
:10306000844200D104E040F2F3317148FDF78DF95C
:103070002DB1102D03D0202D01D0302D00D104E032
:103080004FF47D716A48FDF780F929462046FFF725
:103090008AFF208940F00700208170BD2DE9F041B2
:1030A00004460D4616461F466248844217D0B4F1C6
:1030B000804F14D06048844211D0604884420ED0C2
:1030C0005F4884420BD06148844208D06348844200
:1030D00005D06348844202D05D48844200D104E0B8
:1030E00040F20F415248FDF750F9502D03D0602DAA
:1030F00001D0402D00D104E04FF482614C48FDF72F
:1031000044F90EB1022E00D104E040F211414848CA
:10311000FDF73BF90F2F00DC04E040F21241444878
:10312000FDF733F9602D06D13B460122314620469A
:10313000FFF7CBF905E03B46012231462046FFF779
:1031400064FA29462046FFF72EFF208940F0070049
:103150002081BDE8F0812DE9F04104460D46164678
:103160001F464FF00008334884420ED0B4F1804F20
:103170000BD03148844208D03048844205D03048D2
:10318000844202D03148844200D104E040F28141BF
:103190002748FDF7FAF845B1B5F5805F05D0B5F5DC
:1031A000005F02D0B5F5405F00D104E040F28241FB
:1031B0001F48FDF7EAF8B6F5004F00D006B904E065
:1031C00040F283411A48FDF7E0F80F2F00DC04E0DD
:1031D00040F284411648FDF7D8F8B4F8088008F0AA
:1031E000FF084FF6FF7000EA07203043284340EA0B
:1031F0000808A4F80880BDE8F0812DE9F0410446F4
:103200000D461746984600260A4884420ED0B4F16F
:10321000804F0BD00848844208D00848844205D02B
:103220000748844202D0094884421BD11FE00000B5
:10323000881C0008002C01400004004000080040E9
:10324000000C004000100040001400400034014019
:10325000004001400044014000480140004C014052
:10326000001800404FF48761FE48FDF78EF845B125
:10327000B5F5805F05D0B5F5005F02D0B5F5405FCC
:1032800000D104E040F23941F648FDF77EF8B7F589
:10329000004F00D007B904E040F23A41F148FDF791
:1032A00074F8B8F10F0F00DC04E040F23B41ED4848
:1032B000FDF76BF843463A4629462046FFF74BFF99
:1032C00026894FF6F870064046F007064FF68F70D5
:1032D000064046F070062681BDE8F0812DE9F041F8
:1032E00004460D4616461F46DF4884420ED0B4F110
:1032F000804F0BD0DD48844208D0DD48844205D0A1
:10330000DC48844202D0DC48844200D104E040F230
:103310006141D448FDF739F845B1B5F5805F05D076
:10332000B5F5005F02D0B5F5405F00D104E040F292
:103330006241CC48FDF729F8B6F5004F00D006B938
:1033400004E040F26341C748FDF71FF80F2F00DC8F
:1033500004E040F26441C348FDF717F83B463246AB
:1033600029462046FFF7F7FE208940F4804020815F
:10337000BDE8F08170B504460E461546BA48844251
:103380002FD0B4F1804F2CD0B848844229D0B8480F
:10339000844226D0B748844223D0B848844220D003
:1033A000B74884421DD0B44884421AD0B5488442FC
:1033B00017D0B548844214D0B448844211D0B448E0
:1033C00084420ED0B34884420BD0B348844208D024
:1033D000B248844205D0B248844202D0B148844207
:1033E00000D104E040F29B419E48FCF7CEFF0DB1B6
:1033F000012D00D104E040F29C419A48FCF7C5FF42
:103400002685A58270BD70B504460D4600269648F7
:1034100084420ED0B4F1804F0BD09448844208D03F
:103420009348844205D09348844202D09248844213
:1034300000D104E040F2B3418A48FCF7A6FF3DB159
:10344000102D05D0202D03D0402D01D0602D00D1AE
:1034500004E040F2B4418348FCF797FF26884FF61A
:103460008F7006402E43268070BD2DE9F04704463C
:103470000D4616461F464FF00008C146C2467A4820
:10348000844211D0B4F1804F0ED0784884420BD0E2
:103490007748844208D07748844205D076488442F1
:1034A00002D07E48844200D104E04FF49F616D4811
:1034B000FCF76BFF012D03D0022D01D0032D00D1AD
:1034C00004E040F2F9416748FCF75FFF0EB1022EBD
:1034D00000D104E040F2FA416248FCF756FF0FB118
:1034E000022F00D104E040F2FB415E48FCF74DFFA3
:1034F000B4F80880B4F81890B4F820A04FF6F8702B
:1035000008EA000848EA05084FF6FC4009EA000905
:1035100040F2011049EA00094FF6DD700AEA000A9C
:103520004FF6FF7000EA0710304340EA0A0AA4F899
:103530000880A4F81890A4F820A0BDE8F08770B522
:1035400004460D4600264848844229D0B4F1804FF5
:1035500026D04648844223D04548844220D045485E
:1035600084421DD0444884421AD04648844217D031
:103570004548844214D04548844211D0444884428E
:103580000ED0444884420BD04348844208D043487C
:10359000844205D04248844202D04248844200D14D
:1035A00004E040F227512F48FCF7EFFE502D01D0E8
:1035B000402D00D104E04FF4A5612A48FCF7E5FE58
:1035C000268B4FF68F7006402E43268370BD70B554
:1035D00004460D4600262448844217D0B4F1804F9B
:1035E00014D02248844211D0214884420ED0214870
:1035F00084420BD02048844208D02248844205D01F
:103600002348844202D02548844200D104E040F29D
:103610003F511448FCF7B9FE502D01D0402D00D188
:1036200004E04FF4A8610F48FCF7AFFE268B48F684
:10363000FF7006404FF6FF7000EA05200643268320
:1036400070BD70B504460D4600260748844231D04F
:10365000B4F1804F2ED0054884422BD004488442D8
:1036600028D021E0881C0008002C01400004004004
:1036700000080040000C00400034014000100040F1
:1036800000140040004C0140005001400054014033
:1036900000180040001C0040002000400040014095
:1036A0000044014000480140FD48844202D0FD48EA
:1036B000844200D104E040F25751FB48FCF765FE1C
:1036C000502D01D0402D00D104E04FF4AB61F648FD
:1036D000FCF75BFEA68B4FF68F7006402E43A68349
:1036E00070BD70B504460D460026F04884420ED0E9
:1036F000B4F1804F0BD0EE48844208D0ED488442AC
:1037000005D0E748844202D0E648844200D104E074
:1037100040F26F51E448FCF738FE502D01D0402DA7
:1037200000D104E04FF4AE61DF48FCF72EFEA68B1B
:1037300048F6FF7006404FF6FF7000EA052006438A
:10374000A68370BD70B504460D46D84884422FD07C
:10375000B4F1804F2CD0D648844229D0D548844239
:1037600026D0CF48844223D0D348844220D0D348A7
:1037700084421DD0CB4884421AD0D148844217D00D
:10378000D048844214D0D048844211D0CF488442DB
:103790000ED0CF4884420BD0CE48844208D0CE48C9
:1037A000844205D0CD48844202D0CD48844200D125
:1037B00004E040F28451BC48FCF7E7FD0DB1012D57
:1037C00000D104E040F28551B748FCF7DEFD25B199
:1037D000208840F08000208004E020884FF67F7130
:1037E0000840208070BD70B504460D46AF48844245
:1037F0000BD0AC48844208D0B748844205D0B748C3
:10380000844202D0B648844200D104E040F29C5188
:10381000A548FCF7BAFD0DB1012D00D104E040F23E
:103820009D51A148FCF7B1FD25B1A08840F00400EE
:10383000A08004E0A0884FF6FB710840A08070BD16
:1038400070B504460D469948844217D0B4F1804FB4
:1038500014D09748844211D0964884420ED09048A4
:1038600084420BD08F48844208D09B48844205D0C4
:103870009A48844202D09A48844200D104E040F23F
:10388000B5518948FCF781FD0DB1012D00D104E04F
:1038900040F2B6518448FCF778FD25B1A08840F08D
:1038A0000800A08004E0A0884FF6F7710840A080CF
:1038B00070BD70B504460D467C48844211D0B4F109
:1038C000804F0ED07A4884420BD07A48844208D088
:1038D0007348844205D07348844202D07E488442B3
:1038E00000D104E040F2CE516F48FCF74EFD0DB11F
:1038F000012D00D104E040F2CF516B48FCF745FDAB
:1039000025B1A08840F00100A08004E0A0884FF617
:10391000FE710840A08070BD70B504460D460026BB
:103920006248844229D0B4F1804F26D06048844256
:1039300023D06048844220D0594884421DD0594841
:1039400084421AD05E48844217D05E48844214D024
:103950005D48844211D05D4884420ED05C48844268
:103960000BD05C48844208D05B48844205D05B4859
:10397000844202D05A48844200D104E040F2E95126
:103980004948FCF702FD082D00D005B904E040F2DB
:10399000EA514548FCF7F9FC268B4FF6F7700640D4
:1039A0002E43268370BD70B504460D4600263F4861
:1039B000844217D0B4F1804F14D03D48844211D0D6
:1039C0003C4884420ED0364884420BD0354884426D
:1039D00008D03B48844205D03C48844202D03E484F
:1039E000844200D104E040F202612F48FCF7CDFC94
:1039F000082D00D005B904E040F203612A48FCF725
:103A0000C4FC268B4FF2FF7006404FF6FF7000EAB1
:103A100005200643268370BD70B504460D4600267A
:103A2000224884420ED0B4F1804F0BD0204884420B
:103A300008D02048844205D01948844202D0194851
:103A4000844200D104E040F21A611748FCF79DFC63
:103A5000082D00D005B904E040F21B611248FCF7C4
:103A600094FCA68B4FF6F77006402E43A68370BDDC
:103A700070B504460D4600260C4884420ED0B4F1C1
:103A8000804F0BD00A48844208D00A48844205D0AF
:103A90000348844202D00348844223D127E0000037
:103AA000000C004000340140881C0008002C01403C
:103AB00000040040000800400010004000140040D6
:103AC000004C0140005001400054014000180040EB
:103AD000001C004000200040004001400044014024
:103AE0000048014040F23261F748FCF74EFC082DD7
:103AF00000D005B904E040F23361F348FCF745FC1F
:103B0000A68B4FF2FF7006404FF6FF7000EA0520CB
:103B10000643A68370BD70B504460D460026EB48EB
:103B2000844229D0B4F1804F26D0E948844223D082
:103B3000E848844220D0E84884421DD0E7488442C7
:103B40001AD0E748844217D0E648844214D0E648A9
:103B5000844211D0E54884420ED0E54884420BD01F
:103B6000E448844208D0E448844205D0E3488442D3
:103B700002D0E348844200D104E040F24A61D248D6
:103B8000FCF703FC042D00D005B904E040F24B61C2
:103B9000CD48FCF7FAFB268B4FF6FB7006402E4310
:103BA000268370BD70B504460D460026C748844282
:103BB00017D0B4F1804F14D0C548844211D0C54805
:103BC00084420ED0C44884420BD0C448844208D0FA
:103BD000C348844205D0C548844202D0C6488442C6
:103BE00000D104E040F26461B748FCF7CEFB042D3D
:103BF00000D005B904E040F26561B348FCF7C5FBAD
:103C0000268B4FF6FF3006404FF6FF7000EA052086
:103C10000643268370BD70B504460D460026AB48AA
:103C200084420ED0B4F1804F0BD0A948844208D012
:103C3000A848844205D0A848844202D0A7488442BC
:103C400000D104E040F27D619F48FCF79EFB042D0B
:103C500000D005B904E040F27E619B48FCF795FB7B
:103C6000A68B4FF6FB7006402E43A68370BD70B541
:103C700004460D460026954884420ED0B4F1804F8C
:103C80000BD09348844208D09248844205D0924891
:103C9000844202D09148844200D104E040F296610F
:103CA0008948FCF772FB042D00D005B904E040F20E
:103CB00097618548FCF769FBA68B4FF6FF300640FD
:103CC0004FF6FF7000EA05200643A68370BD70B56D
:103CD00004460D4600267D4884420ED0B4F1804F44
:103CE0000BD07B48844208D07A48844205D07A4879
:103CF000844202D07948844200D104E040F2AF61AE
:103D00007148FCF742FB802D00D005B904E04FF468
:103D1000D6616D48FCF739FB268B4FF67F70064065
:103D20002E43268370BD70B504460D4600266748B5
:103D300084420ED0B4F1804F0BD06548844208D045
:103D40006448844205D06448844202D06348844277
:103D500000D104E040F2C9615B48FCF716FB802DFE
:103D600000D005B904E040F2CA615748FCF70DFBEA
:103D7000268BC6F30E064FF6FF7000EA05200643B9
:103D8000268370BD70B504460D4600264F48844218
:103D90000ED0B4F1804F0BD04D48844208D04D482E
:103DA000844205D04C48844202D04C48844200D121
:103DB00004E040F2E1614448FCF7E7FA802D00D0CE
:103DC00005B904E040F2E2613F48FCF7DEFAA68B59
:103DD0004FF67F7006402E43A68370BD70B5044633
:103DE0000D460026394884420ED0B4F1804F0BD0E6
:103DF0003748844208D03748844205D03648844248
:103E000002D03648844200D104E040F2F9612E48E5
:103E1000FCF7BBFA802D00D005B904E040F2FA614E
:103E20002948FCF7B2FAA68BC6F30E064FF6FF70D0
:103E300000EA05200643A68370BD70B504460D4612
:103E400000262248844229D0B4F1804F26D0204851
:103E5000844223D01F48844220D01F4884421DD072
:103E60001E4884421AD01E48844217D01D488442FE
:103E700014D01D48844211D01C4884420ED01C48E6
:103E800084420BD01B48844208D01B48844205D092
:103E90001A48844202D01A48844200D104E040F219
:103EA00011710948FCF771FA0DB1022D00D104E03F
:103EB00040F212710448FCF768FA268C4FF6FD7048
:103EC00006402E43268470BD881C0008002C01404B
:103ED0000004004000080040000C00400034014095
:103EE000004C0140005001400054014000180040C7
:103EF000001C004000200040004001400044014000
:103F00000048014070B504460D460026FB48844237
:103F10000BD0FB48844208D0FA48844205D0FA48C6
:103F2000844202D0F948844200D104E04FF4E561B4
:103F3000F748FCF72AFA0DB1082D00D104E040F251
:103F40002971F348FCF721FA268C4FF6F7700640EA
:103F50002E43268470BD70B504460D460026E74802
:103F6000844217D0B4F1804F14D0EA48844211D073
:103F7000E94884420ED0E94884420BD0E0488442AC
:103F800008D0E748844205D0E648844202D0DD48A4
:103F9000844200D104E04FF4E861DD48FCF7F5F914
:103FA0000DB1022D00D104E040F24171D848FCF778
:103FB000ECF9268C4FF6DF7006404FF6FF7000EAF2
:103FC00005100643268470BD70B504460D460026D4
:103FD000CA48844202D0CA48844200D104E040F278
:103FE0005771CB48FCF7D1F90DB1082D00D104E091
:103FF0004FF4EB61C648FCF7C8F9268C4FF67F708A
:1040000006404FF6FF7000EA05100643268470BD97
:1040100070B504460D460026B84884420ED0B4F16F
:10402000804F0BD0BB48844208D0BB48844205D0A7
:10403000BA48844202D0B248844200D104E040F23F
:104040006F71B348FCF7A1F90DB1022D00D104E066
:104050004FF4EE61AE48FCF798F9268C4FF6FF500E
:1040600006404FF6FF7000EA05200643268470BD27
:1040700070B504460D460026A048844202D0A048F0
:10408000844200D104E040F28771A148FCF77DF939
:104090000DB1082D00D104E04FF4F1619C48FCF70C
:1040A00074F9268C4FF2FF7006404FF6FF7000EA5D
:1040B00005200643268470BD70B504460D460026D3
:1040C0008E4884420ED0B4F1804F0BD09148844288
:1040D00008D09148844205D09048844202D0884854
:1040E000844200D104E040F29F718948FCF74DF909
:1040F0000DB1022D00D104E04FF4F4618448FCF7C7
:1041000044F9268C4DF6FF7006404FF6FF7000EA2A
:1041100005300643268470BD2DE9F04104460D4666
:10412000164600277548844229D0B4F1804F26D026
:104130007848844223D07848844220D0774884420B
:104140001DD06F4884421AD07548844217D07648F3
:10415000844214D07548844211D0724884420ED0F3
:10416000734884420BD07348844208D06548844227
:1041700005D06548844202D06448844200D104E0FE
:1041800040F2BB716248FCF700F92DB1042D03D059
:10419000082D01D00C2D00D104E040F2BC715C4828
:1041A000FCF7F3F8012E00D006B904E040F2BD712F
:1041B0005748FCF7EAF80120A84087B2208CB843A2
:1041C0002084208C06FA05F189B208432084BDE8DA
:1041D000F0812DE9F04104460D4616460027474878
:1041E00084420BD04648844208D04648844205D0D9
:1041F0004548844202D04548844200D104E040F260
:10420000D9714348FCF7C1F81DB1042D01D0082D28
:1042100000D104E040F2DA713D48FCF7B6F8042E14
:1042200000D006B904E040F2DB713948FCF7ADF884
:104230000420A84087B2208CB8432084208C06FA42
:1042400005F189B208432084BDE8F0812DE9F041F1
:1042500004460F4615460026B0462848844229D019
:10426000B4F1804F26D02B48844223D02A48844280
:1042700020D02A4884421DD0214884421AD02848A0
:10428000844217D02848844214D02848844211D050
:10429000244884420ED0264884420BD025488442CC
:1042A00008D01848844205D01748844202D01748E5
:1042B000844200D104E040F603011548FCF765F89C
:1042C0002FB1042F03D0082F01D00C2F00D104E010
:1042D00040F604010E48FCF758F86DB1102D0BD0D4
:1042E000202D09D0302D07D0602D05D0702D03D0A2
:1042F000502D01D0402D1FD123E00000002C0140A3
:1043000000340140004001400044014000480140A9
:10431000881C00080004004000080040000C004019
:10432000004C014000180040005001400054014082
:10433000001C00400020004040F60501FA48FCF750
:1043400024F8264618360120B8401FFA80F8208C41
:1043500020EA080020840FB1082F09D106EB670678
:10436000306820F0700030603068284330600EE024
:10437000381FC0F34E000644306820F4E04030603F
:1043800030684FF6FF7101EA052108433060BDE84F
:10439000F08170B504460D46E44884422FD0B4F154
:1043A000804F2CD0E248844229D0E248844226D073
:1043B000E148844223D0E148844220D0E04884424E
:1043C0001DD0E04884421AD0DF48844217D0DF482D
:1043D000844214D0DE48844211D0DE4884420ED09C
:1043E000DD4884420BD0DD48844208D0DC4884425A
:1043F00005D0DC48844202D0DB48844200D104E08E
:1044000040F62F01C848FBF7C0FF0DB1012D00D1C8
:1044100004E04FF40361C448FBF7B7FF25B12088DF
:1044200040F00200208004E020884FF6FD71084033
:10443000208070BD70B504460D46BC4884422FD024
:10444000B4F1804F2CD0BA48844229D0B948844274
:1044500026D0B948844223D0B848844220D0B848F6
:1044600084421DD0B74884421AD0B748844217D03E
:10447000B648844214D0B648844211D0B54884422C
:104480000ED0B54884420BD0B448844208D0B4481A
:10449000844205D0B348844202D0B348844200D15C
:1044A00004E040F64B01A048FBF76FFF0DB1012D72
:1044B00000D104E040F64C019B48FBF766FF25B1B4
:1044C000208840F00400208004E020884FF6FB7133
:1044D0000840208070BD70B504460D469348844264
:1044E00017D0B4F1804F14D09148844211D0914834
:1044F00084420ED0904884420BD09248844208D027
:104500009148844205D09348844202D09448844222
:1045100000D104E040F663018348FBF736FF0DB19C
:10452000012D00D104E040F664017F48FBF72DFF28
:1045300025B1A08840F08000A08004E0A0884FF65C
:104540007F710840A08070BD70B504460D46774865
:1045500084422FD0B4F1804F2CD07548844229D0AA
:104560007448844226D07448844223D073488442DD
:1045700020D0734884421DD0724884421AD07248B9
:10458000844217D07148844214D07148844211D0BB
:10459000704884420ED0704884420BD06F488442E9
:1045A00008D06F48844205D06E48844202D06E48DD
:1045B000844200D104E040F67D015B48FBF7E5FE54
:1045C000082D00D005B904E040F67E015648FBF7FF
:1045D000DCFE20884FF6F7710840208020882843B1
:1045E000208070BD70B504460D46504884421DD0F1
:1045F000B4F1804F1AD04E48844217D04D488442BF
:1046000014D04D48844211D04C4884420ED04C48BE
:1046100084420BD04B48844208D04B48844205D09A
:104620004C48844202D04E48844200D104E040F617
:104630009D013D48FBF7A9FE6DB1102D0BD0202D3B
:1046400009D0302D07D0402D05D0502D03D0602D3E
:1046500001D0702D00D104E040F69E013248FBF7F6
:1046600094FEA0884FF68F710840A080A088284350
:10467000A08070BD70B504460D462C48844217D00A
:10468000B4F1804F14D02A48844211D02948844282
:104690000ED0294884420BD02A48844208D02A48A8
:1046A000844205D02B48844202D02D48844200D158
:1046B00004E040F6B4011C48FBF767FE042D05D06A
:1046C000052D03D0062D01D0072D00D104E040F6C2
:1046D000B5011548FBF759FE20894FF6F8710840DF
:1046E000208120892843208170BD70B504460D4685
:1046F0000E48844217D0B4F1804F14D00C48844245
:1047000011D00C4884420ED00B4884420BD00D4887
:10471000844208D00C48844205D00E48844202D01E
:104720000F48844222D126E0881C0008002C01405A
:104730000004004000080040000C00400010004051
:104740000014004000340140004C01400050014082
:104750000054014000180040001C004000200040B0
:1047600000400140004401400048014040F6C901BA
:10477000F648FBF70AFE802D00D005B904E040F6AC
:10478000CA01F248FBF701FE20894FF67F7108400D
:10479000208120892843208170BD70B504460D46D4
:1047A000EB4884422FD0B4F1804F2CD0E9488442AA
:1047B00029D0E948844226D0E848844223D0E848FA
:1047C000844220D0E74884421DD0E74884421AD072
:1047D000E648844217D0E648844214D0E548844233
:1047E00011D0E54884420ED0E44884420BD0E4481E
:1047F000844208D0E348844205D0E348844202D092
:10480000E248844200D104E040F6DB01CF48FBF7E8
:10481000BCFDA58470BD70B504460D46CC488442ED
:104820002FD0B4F1804F2CD0CA48844229D0CA4836
:10483000844226D0C948844223D0C948844220D02B
:10484000C84884421DD0C84884421AD0C748844210
:1048500017D0C748844214D0C648844211D0C648F5
:1048600084420ED0C54884420BD0C548844208D04B
:10487000C448844205D0C448844202D0C34884421C
:1048800000D104E040F6E901B048FBF77EFDA585C4
:1048900070BD70B504460D46AD48844229D0B4F1D0
:1048A000804F26D0AB48844223D0AB48844220D0EE
:1048B000AA4884421DD0AC4884421AD0AB488442F6
:1048C00017D0AB48844214D0AA48844211D0AA48D9
:1048D00084420ED0A94884420BD0A948844208D013
:1048E000A848844205D0A848844202D0A748844200
:1048F00000D104E040F6F7019448FBF746FDA58699
:1049000070BD70B504460D469148844217D0B4F18D
:10491000804F14D08F48844211D08F4884420ED0EB
:104920008E4884420BD09048844208D08F488442FD
:1049300005D09148844202D09248844200D104E0DC
:1049400040F605118148FBF720FD258770BD70B545
:1049500004460D467E4884420ED0B4F1804F0BD001
:104960007C48844208D07C48844205D07B488442FD
:1049700002D07D48844200D104E040F61311734810
:10498000FBF703FDA58770BD70B504460D46704862
:1049900084420ED0B4F1804F0BD06E48844208D0D0
:1049A0006D48844205D06D48844202D06E488442EE
:1049B00000D104E040F621116448FBF7E6FCA4F8BE
:1049C000405070BD70B504460D466148844229D000
:1049D000B4F1804F26D05F48844223D05E488442A1
:1049E00020D05E4884421DD05F4884421AD05F4880
:1049F000844217D05E48844214D05E48844211D06D
:104A00005D4884420ED05D4884420BD05C488442AD
:104A100008D05C48844205D05B48844202D05B48A1
:104A2000844200D104E040F68C114848FBF7ADFC0D
:104A30002DB1B5F5807F02D0B5F5007F00D104E03F
:104A400040F68D114148FBF7A0FC20884FF6FF414E
:104A50000840208020882843208070BD10B504467F
:104A60003B48844229D0B4F1804F26D03948844253
:104A700023D03948844220D0384884421DD03A4857
:104A800084421AD03948844217D03948844214D01D
:104A90003848844211D0384884420ED03748844286
:104AA0000BD03748844208D03648844205D0364877
:104AB000844202D03548844200D104E040F69C1183
:104AC0002248FBF762FCA08E10BD10B504462048BA
:104AD000844217D0B4F1804F14D01E48844211D0C4
:104AE0001D4884420ED01D4884420BD01E4884428B
:104AF00008D01E48844205D01F48844202D0214875
:104B0000844200D104E040F6A9111048FBF73DFCB7
:104B1000208F10BD10B504460D4884420ED0B4F16C
:104B2000804F0BD00B48844208D00B48844205D0FC
:104B30000A48844202D00C48844200D104E040F686
:104B4000B6110248FBF721FCA08F10BD881C00089D
:104B5000002C01400004004000080040000C004010
:104B6000001000400014004000340140004C01409F
:104B7000005001400054014000180040001C00405B
:104B80000020004000400140004401400048014036
:104B900010B50446F94884420ED0B4F1804F0BD0D2
:104BA000F748844208D0F748844205D0F64884424A
:104BB00002D0F648844200D104E040F6C311F44824
:104BC000FBF7E3FBB4F8400010BD10B50446EB481A
:104BD00084422FD0B4F1804F2CD0E948844229D0B0
:104BE000E848844226D0E848844223D0E9488442F9
:104BF00020D0E94884421DD0E44884421AD0E748D6
:104C0000844217D0E648844214D0E648844211D04A
:104C1000E54884420ED0E54884420BD0E448844203
:104C200008D0E448844205D0E348844202D0E348F7
:104C3000844200D104E04FF41D61D548FBF7A5FB89
:104C4000A08C10BD10B50446CC4884422FD0B4F1DE
:104C5000804F2CD0CA48844229D0CA48844226D0EA
:104C6000C948844223D0CB48844220D0CA488442D9
:104C70001DD0C64884421AD0C848844217D0C848BC
:104C8000844214D0C748844211D0C74884420ED011
:104C9000C64884420BD0C648844208D0C5488442E6
:104CA00005D0C548844202D0C448844200D104E003
:104CB00040F6DD11B648FBF768FB208D10BD70B5DE
:104CC00004460D460026AD4884422FD0B4F1804FF3
:104CD0002CD0AB48844229D0AA48844226D0AA4886
:104CE000844223D0AB48844220D0AB4884421DD0BC
:104CF000A64884421AD0A948844217D0A8488442C2
:104D000014D0A848844211D0A74884420ED0A748A6
:104D100084420BD0A648844208D0A648844205D0DD
:104D2000A548844202D0A548844200D104E04FF453
:104D300020619748FBF729FB012D19D0022D17D0D0
:104D4000042D15D0082D13D0102D11D0202D0FD0EB
:104D5000402D0DD0802D0BD0B5F5007F08D0B5F5D6
:104D6000806F05D0B5F5006F02D0B5F5805F00D13A
:104D700004E040F601218648FBF707FB208A284023
:104D800008B1012600E00026304670BD70B504462B
:104D90000D467A4884422FD0B4F1804F2CD0784809
:104DA000844229D07748844226D07748844223D051
:104DB0007848844220D0784884421DD07348844289
:104DC0001AD07648844217D07548844214D075486A
:104DD000844211D0744884420ED0744884420BD06F
:104DE0007348844208D07348844205D07248844294
:104DF00002D07248844200D104E040F62B2164487E
:104E0000FBF7C3FA05F4614008B905B104E040F6C8
:104E10002C215F48FBF7B9FAE843208270BD2DE9E9
:104E2000F04104460D4600260027B0465348844210
:104E30002FD0B4F1804F2CD05148844229D0514812
:104E4000844226D05048844223D05248844220D005
:104E5000514884421DD04D4884421AD04F48844264
:104E600017D04F48844214D04E48844211D04E4847
:104E700084420ED04D4884420BD04D48844208D025
:104E80004C48844205D04C48844202D04B4884426E
:104E900000D104E040F64D213D48FBF776FA012DA4
:104EA0000DD0022D0BD0042D09D0082D07D0102DC8
:104EB00005D0202D03D0402D01D0802D00D104E05D
:104EC00040F64E213248FBF760FA208A00EA0507D7
:104ED000A08900EA050827B1B8F1000F01D001262A
:104EE00000E000263046BDE8F08170B504460D466E
:104EF000224884422FD0B4F1804F2CD020488442E5
:104F000029D02048844226D01F48844223D02148FB
:104F1000844220D0204884421DD01C4884421AD0AC
:104F20001E48844217D01E48844214D01D48844233
:104F300011D01D4884420ED01C4884420BD01C481E
:104F4000844208D01B48844205D01B48844202D0CA
:104F50001A48844200D104E040F677210C48FBF760
:104F600014FA05F47F4008B905B104E040F6782151
:104F70000748FBF70AFAE843208270BD002C014085
:104F80000004004000080040000C004000340140D4
:104F9000881C00080010004000140040004C014034
:104FA000005001400054014000180040001C004027
:104FB0000020004000400140004401400048014002
:104FC00070477047704710B500F008F8006810BDD2
:104FD00010B5044600F002F8046010BD00487047A8
:104FE0000803002000487047080300207546FFF7BB
:104FF000F9FFAE4605006946534620F00700854696
:1050000018B020B5FBF7D8FABDE820404FF00006F5
:105010004FF000074FF000084FF0000B21F00701A0
:10502000AC46ACE8C009ACE8C009ACE8C009ACE8E3
:10503000C0098D46704710B50446AFF30080204686
:10504000BDE81040FBF799B801491820ABBEFEE758
:10505000260002007047490050EAC12018BF042012
:105060004A0D18BF40F0010040F2FF72B2EB515FF1
:1050700008BF40F00200012808BF0520704700006B
:105080002DE9F74F144694B00021C4E90211159997
:10509000079121F00045C9498D4206DC1599C4E904
:1050A000000117B00020BDE8F08FC549DFF814A358
:1050B000A9423CDD0799C44E0029C44FC44A159942
:1050C000534619DD00F0B8FE554506D0C14AC24B23
:1050D00000F0B2FEC4E900010AE04FF0D352BE4B2B
:1050E00000F0AAFE32463B4600F0A6FEC4E90001ED
:1050F00017B00120BDE8F08F00F032FB554506D017
:10510000B44AB54B00F02CFBC4E900010AE04FF0B3
:10511000D352B14B00F024FB32463B4600F020FB5B
:10512000C4E9000117B04FF0FF30BDE8F08FAB4984
:10513000A942159978DB21F0004183468846A84AA8
:10514000A84B00F06FFD0022A74B00F009FB00F018
:105150000FFD099000F03BFD06460F469C4A534662
:1051600000F060FD43465A4600F05AFE80468A46EB
:10517000984A994B3046394600F054FD2A0D0125D6
:105180000B924246534600F04BFE032DC4E900014A
:1051900039D00B98C1F30A51401A05EB451111396A
:1051A000814230DA9148C346784400EB0510CDF8CF
:1051B0000CA00C90D0E900233046394600F032FDB7
:1051C00002460B46049106905846039900F034FEBF
:1051D00080468A4602460B465846039900F02CFE4C
:1051E000049B069A00F028FE83460C9803913946EA
:1051F000D0E90223304600F015FD5A46039B00F02B
:105200001BFE6D1CBDE707980028A2BF099817B0C8
:10521000BDE8F08F616881F000416160099817B0C6
:105220004042BDE8F08FFFE784461598C1F31301B3
:10523000C0F30A50A0F2F5304FEA601800F01F06E4
:10524000C6F12000139000200690079041F4801EC4
:1052500005206D4676B1664A08EB00017A4452F8A3
:10526000213002EB8101B3404A68139922FA01F11F
:10527000194305E05F4908EB0002794451F8221018
:10528000A1FB0E27A1FB0C131A449A4234BF012341
:10529000002303EB070A05EB8003D3E901B70F44B2
:1052A0008F4234BF0121002193448B4411B19345B7
:1052B00002D903E0934501D2012100E00021C3E9B6
:1052C00001B7514445F82010011EA0F10100C1DCD6
:1052D0000298059F00F10050800F12900298DDE9BE
:1052E0000356800000F073FC834628460D9100F0C1
:1052F00085FC6FF01D0200F0BBFECDE90E013046CB
:1053000000F07CFC6FF03D0200F0B2FE80468A4661
:10531000384600F073FC6FF05D0200F0A9FE07460E
:1053200042465346119100F01BFADDE90E2300F0CE
:1053300017FA5A460D9B00F013FA00250E465A46FE
:1053400028460D9B00F078FDDDE90E2300F074FD8A
:105350004246534600F070FD3A46119B00F060FD56
:10536000DFF898A0244A534600F05CFC07468846C4
:10537000234A244B3146284600F054FC3A46434623
:1053800000F0EEF9074688464FF0A84253463146F2
:10539000284600F047FC3A46434600F0E1F9159AEA
:1053A00012F0004F04D0129A81F000415242129242
:1053B000C4E90001129817B0BDE8F08FFB21E93F66
:1053C0007CD90240FB21F93F7370032E8A19A33B5D
:1053D000000040543163621A61B4D03DFB21394171
:1053E00083C8C96D305FE43F0000E03F840F0000D8
:1053F000000F0000E20E0000182D4454FB21F93D7F
:105400003326A611460B113C2DE9FF4D21F0004833
:1054100007460C46B8F1795F08DA00F0A9FB0028CE
:1054200001BF0020324904B0BDE8F08D3A46234662
:105430001046194600F0F6FB054602462D480E467A
:105440000B460621784400F05DF82A46334600F00A
:10545000E9FBDDE9022382468B463846214600F00F
:10546000E1FB04460F4652465B462846314600F0B3
:10547000D9FB22463B4600F0DFFC07468A464FF048
:10548000FF322846314600F0F3FD1B4A90450ADA08
:105490003A46534600F0D0FC04B00022BDE8F04D7F
:1054A000134B00F0BDBC154A4245A8BFA8F5001536
:1054B0004FF00004B8BF124D22462B4600F0BCFC52
:1054C0000646884622462B460020094900F0B4FCD7
:1054D00004460D463A4653463046414600F0ACFC81
:1054E00004B022462B46BDE8F04D00F099BC000008
:1054F0000000F03FB80C00003333D33F0000E93F19
:105500000000D23F2DE9F0414F1E00EBC7010446D9
:10551000D1E9000115461E4637F006020DD02A4695
:10552000334600F07FFB7F1E04EBC703D3E9002363
:1055300000F016F937F00602F1D1022F25D0042F22
:1055400013D0062F18BFBDE8F0812A46334600F07D
:1055500069FBD4E90A2300F003F92A46334600F038
:1055600061FBD4E9082300F0FBF82A46334600F03B
:1055700059FBD4E9062300F0F3F82A46334600F03D
:1055800051FBD4E9042300F0EBF82A46334600F03F
:1055900049FBD4E9022300F0E3F82A46334600F041
:1055A00041FBD4E90023BDE8F04100F0D9B8000088
:1055B0002DE9FF4D054621F0004084B00C46B0F1C6
:1055C000795F0BDA2846FFF746FD042808BF00F094
:1055D0006FF8284608B02146BDE8F08D2A460B46F4
:1055E000104600F01FFB06460F462A46234600F0F1
:1055F00019FB804626488A4632463B4605217844B8
:10560000FFF780FF83461098029160B3214A224B36
:105610004046514600F006FBCDE900015A4640469F
:105620005146029B00F0FEFA82468846DDE90601FB
:105630004FF0FF3200F01CFD5246434600F0FCFBE9
:1056400032463B4600F0EEFADDE9062300F0F4FBBB
:10565000DDE9002300F0F0FB08B02A462346BDE850
:10566000F04D00F0DDBB0B465A463046394600F09F
:10567000D9FA084A084B00F073F84246534600F046
:10568000D1FA08B02A462346BDE8F04D00F068B8CC
:10569000F60B0000495555555555C5BF012200F080
:1056A000E7BC002213461046114600F009B900007D
:1056B000024A0020110700F0DBBC000001FDFFFFE3
:1056C00000B5254B21F0004287B09A4203DC00224E
:1056D000134600922BE0214B9A4208D140B94FF07B
:1056E0000100FFF775FCFFF7DCFF07B000BD03DB2F
:1056F000FFF7D4FF07B000BD02AAFFF7C1FC10F00E
:1057000003014FF001000DD0012914D002291AD055
:105710000DF1080C9CE80F00FFF776FE07B081F052
:10572000004100BD0DF1080C00909CE80F00FFF750
:105730003FFF07B000BD0DF1080C9CE80F00FFF71C
:1057400063FE07B000BD0DF1080C00909CE80F004F
:10575000FFF72EFFE2E70000FB21E93F0000F07FAA
:1057600010B591EA030F48BF83F0004300F16C834A
:10577000841A71EB030C05D2121943EB0C03001BC6
:1057800061EB0C01DFF824E14FEA1154A4EB135C48
:105790001EEA430F18BF9EEA445F73D023EA0E034C
:1057A000DCF1200E21EA045143F4801332D322FAB3
:1057B0000CFE10EB0E0023FA0CFE41EB0E01CCF1B7
:1057C000200E03FA0EFE10EB0E0051F10001B1F5B0
:1057D000801FCCF1200E32D201EB045112FA0EF2EE
:1057E000BDE8104058BF7047401C38BF5FEA420216
:1057F00018BF7047002814BF20F0010041F10001DC
:105800004FEA410313F5001F38BF7047A1F1C041B3
:1058100000F000BB012A43EB0302ACF1200CDCF1E9
:105820001F0E32BF4FF0000E23FA0CF310EB0300F3
:1058300041EB0451B4EB115FD0D0A1EB045101F561
:10584000801149085FEA300001EB04510ED350F19A
:10585000000038BF12FA0EFE08D1BDE81040C9E7BB
:10586000401C38BF5FEA4202CAD1C3E7BDE810401E
:105870004FEA410313F5001F38BF7047A1F1C04143
:1058800000F0C8BA9EEA445F08D011EA5E0FBDE896
:10589000104004BF01F0004100207047BDE81040F7
:1058A00070B500F069FA00BF64FBBE3E0000E0FF87
:1058B00002494FF0000000F0A9BB00BF0000F87FD4
:1058C0002DE9C04130B4DFF8A0C23CEA111418BF82
:1058D0003CEA131400F0EC8081EA03051CEA111481
:1058E00044EAD57418BF1CEA131500F0C780A4EB76
:1058F00005044FF0004545EAC12145EAC32341EACA
:10590000505143EA525304F17F74994204F5003434
:105910004FEAC0204FEAC22208BF904200F09C80AC
:105920004FEA13650FF24016765D4FEA134506FB0A
:1059300005F7C7F1807706FB07F74FEAD737A7FBD4
:1059400003687642C8F58038A7FB06CE38BFA8F1B9
:10595000010807FB08E64FF0000EA6FB028CE6FBF1
:1059600003CEDCF1000CCEF1004E38BFAEF1010EDB
:10597000A6FB0C584FF000074FF00005E6FB0E8722
:10598000A1FB08C6A0FB07CE16EB0E0645F10005ED
:10599000E1FB076515F1E04E7EBFA4F580345FEAB8
:1059A00046066D4116F1800745F100054FEA1727BD
:1059B0004FEA066647EA0567A6F1DE46B6F1805F64
:1059C0004FEA15251FD9384624F0010C05EBC471A8
:1059D000BCF1FE6F01EB0C1102D8F0BCBDE80081F8
:1059E00024425CBF01F5801E9EEAC47F02D4F0BC55
:1059F000BDE80081244238D4F0BCA1F1C041BDE82B
:105A0000004100F007BA4FEAD22242EA43524FEA7D
:105A1000D323A7FB02864FEAD02040EA415007FB80
:105A200003661EEA0E0F4FEAD12105FB026658BF3E
:105A3000A6EB0056B6EB00564FEA520E4EEAC37E76
:105A400018EB0E0E56EB530EBDD518EB02085E4157
:105A50007F1C55F10005B6E74FF480154FF00007A5
:105A60004FF000064FF00008ADE7F0BC4FF000002B
:105A700001F1C04101F00041BDE8008111EA0C1FB5
:105A80000CEA131500D00CE013EA0C1F00F025807F
:105A90004FF00000F0BC81EA030101F00041BDE8D5
:105AA0000081F0BCBDE8004181EA030100F0B2B919
:105AB000F0BCBDE8004170B500F05EF9097EFC3E27
:105AC00000F007B881EA03014FF0000001F0004147
:105AD000704781EA030100F09DB9F0BCBDE80041C8
